:1000000033C000004CC000004AC0000048C00000DF
:1000100046C0000044C0000042C0000040C00000D4
:100020003EC000003CC000003AC00000E6C1000035
:1000300036C0000034C0000032C0000030C00000F4
:100040002EC000002CC000002AC0000028C0000004
:1000500026C0000024C0000022C0000020C0000014
:100060001EC000001CC0000011241FBECFEFD8E04E
:10007000DEBFCDBF11E0A0E0B1E0E8EDFDE002C0E1
:1000800005900D92AE35B107D9F711E0AEE5B1E0BC
:1000900001C01D92A138B107E1F79BD29BC6B0CF3A
:1000A00080EE84B917B88EE08AB91BB818B815B8B5
:1000B000089590917C00907F90937C0090917C00BB
:1000C000982B90937C0080917A00806480937A00D2
:1000D00080917A0086FDFCCF089580E480937C00B7
:1000E000EAE7F0E087E0808380818068808308957C
:1000F00080E680937C00EAE7F0E085E08083808101
:10010000806880830895D5DF209178003091790050
:10011000C9010895CEDF809179000895EAE7F0E003
:1001200080818F7780830895ECE7F0E080818064A0
:10013000808380818F7780830895ECE7F0E0808171
:10014000806C80830895FC01408121E030E0062E20
:1001500001C0220F0A94EAF74227408308950895C8
:10016000CF92DF92EF92FF920F931F93FC016801F1
:100170007901208181E090E0062E01C0880F0A9469
:10018000EAF7442319F0282B208303C080958223AB
:100190008083009168011091690120916A0130917A
:1001A0006B010C0D1D1D2E1D3F1D462FBF0186E648
:1001B00091E038D01F910F91FF90EF90DF90CF909A
:1001C0000895409168015091690160916A017091B0
:1001D0006B0123EA30E086E691E062C0880F81502F
:1001E00080935E01089590915F0180916C0191115F
:1001F0000BC0823348F085B190E2892785B910920F
:100200006C0180915E010BC0843158F085B190E2A1
:10021000892785B910926C0180915F01815080938C
:100220005F0108958F929F92AF92BF92CF92DF921B
:10023000EF92FF920F931F93CF93DF931F92CDB74F
:10024000DEB74C015B016801790189E090E04983E8
:10025000D2D1FC014981009791F0B182A082428302
:10026000C382D482E582F682D4018D919C9111974C
:1002700090878783ED93FC9320E030E002C02FEF5E
:100280003FEFC9010F90DF91CF911F910F91FF9028
:10029000EF90DF90CF90BF90AF909F908F90089598
:1002A0006F927F928F929F92AF92BF92CF92DF9286
:1002B000EF92FF920F931F93CF93DF938C016A010C
:1002C0007B015901FC01C081D1814E0123C08B818A
:1002D0009C81AD81BE81C816D906EA06FB06B0F046
:1002E0006A8188819981F50109956F807884F80188
:1002F00080819181C817D90719F46082718203C087
:10030000F40167827086CE0111D203C06F807884B9
:100310004E01E3012097D9F680E090E0DF91CF9184
:100320001F910F91FF90EF90DF90CF90BF90AF9013
:100330009F908F907F906F9008952FEFFC01208306
:1003400008958834910579F020F48734910501F5FA
:1003500007C0833B910571F0843B9105C9F40EC041
:1003600084B5836C02C084B5836384BD85B5816028
:1003700085BD08958091B000836C03C08091B0006A
:1003800083638093B0008091B10081608093B1005D
:1003900008950F931F9389019A01FC016083409196
:1003A0006F01509170016091710170917201040FA1
:1003B000151F261F371F40E0BC018DE691E032DF9C
:1003C0001F910F91089540916F01509170016091BC
:1003D0007101709172012DE931E08DE691E060CFFD
:1003E00083E08093810082E390E090938900809382
:1003F000880082E080936F0008951F920F920FB6DD
:100400000F9211248F939F93EF93FF93E8E8F0E00E
:1004100080819181C29691838083809160018F5FFA
:1004200080936001FF91EF919F918F910F900FBE8C
:100430000F901F901895F894809160019091610140
:10044000282F291B80936101789480916201820F8B
:10045000853018F48093620129C085508093620131
:100460008091680190916901A0916A01B0916B013E
:100470000196A11DB11D8093680190936901A0931D
:100480006A01B0936B0180916F0190917001A0910E
:100490007101B09172010196A11DB11D80936F0190
:1004A00090937001A0937101B093720180916301E8
:1004B000820F80936301823328F18253809363011A
:1004C00080916C018F5F80936C01809164018F5FDC
:1004D0008A3018F48093640107C0109264018091FF
:1004E00073018F5F80937301809165018F5F8093AB
:1004F0006501843638F010926501809175018F5F37
:10050000809375010895CF93C82F8A3011F48DE040
:10051000FADF8091C00085FFFCCFC093C600CF9169
:1005200008958091C00087FFFCCF8091C600089598
:100530008EE091E090937E0180937D0180E091E0D8
:1005400090937C0180937B011092C50087E6809395
:10055000C400E0ECF0E080818D7F808386E08093B2
:10056000C20088E18093C100089508954C9B02C0A9
:100570005A9A01C05A98809173018230B0F010925B
:100580007301809176011F928F9382E291E09F9395
:100590008F9367D1809176018093B4008F5F8093B1
:1005A00076010F900F900F900F908091750184311C
:1005B00078F01092750180E0A6DD9F938F938EE313
:1005C00091E09F938F934DD10F900F900F900F90CC
:1005D000089566DD05DF81E001DEAADF7EDDBFDD97
:1005E00084EB90E0AEDEC1DF789425DFFCDDE9DD51
:1005F000EADEBCDFFACF0F931F93CF93DF938230F5
:10060000910510F482E090E0E0917901F0917A0197
:1006100020E030E0C0E0D0E023C0408151814817A5
:100620005907A8F04817590761F4828193812097F0
:1006300019F09B838A832EC090937A01809379016D
:1006400029C02115310529F04217530710F0A901DF
:1006500002C0BE01DF0102811381EF019A01F8019E
:100660003097D9F62115310509F1281B390B2430B3
:10067000310590F412968D919C9113976115710537
:1006800021F0FB019383828304C090937A018093CD
:100690007901FD01329644C0FD01E20FF31F819301
:1006A0009193225031092D933C933AC020917701C8
:1006B00030917801232B41F420911E0130911F01CC
:1006C000309378012093770120911C0130911D0116
:1006D0002115310541F42DB73EB7409120015091CD
:1006E0002101241B350BE0917701F0917801E2178D
:1006F000F307A0F42E1B3F0B2817390778F0AC0145
:100700004E5F5F4F2417350748F04E0F5F1F509321
:100710007801409377018193919302C0E0E0F0E08B
:10072000CF01DF91CF911F910F910895EF92FF922A
:100730000F931F93CF93DF93009709F48EC0DC01D2
:10074000129713961C921E921297E0907901F090E6
:100750007A01E114F10489F42D913C911197280F4D
:10076000391F80917701909178018217930789F55D
:10077000B0937801A093770170C0E70120E030E0EA
:1007800001C0EA01CA17DB0738F44A815B819E0188
:1007900041155105B1F722C0AC0142505109FA018F
:1007A000D383C28300811181BC01600F711F6C175C
:1007B0007D0761F468817981600F711F6E5F7F4FE3
:1007C000718360836A817B81738362832115310524
:1007D00029F4B0937A01A09379013FC0F901B38362
:1007E000A283E90149915991C40FD51FAC17BD07E8
:1007F00071F4DC019E918E91840F951F0296918376
:10080000808312968D919C91139793838283A0E0AD
:10081000B0E002C0D7017C01F7018281938100978B
:10082000C9F7C701029620813181820F931F209161
:100830007701309178012817390779F4109729F456
:1008400010927A011092790104C013961C921E92A4
:100850001297F0927801E0927701CDB7DEB7E6E02B
:10086000AAC2A2E0B0E0E6E3F4E08DC2FE01379652
:1008700061917191FA83E983AF0180917D0190913B
:100880007E0103D02296E2E09AC2ACE0B0E0EAE456
:10089000F4E069C27C016B018A01FC0117821682B7
:1008A000838181FFBAC188248394912C8C0E9D1E74
:1008B000F7019381F60193FD859193FF81916F017B
:1008C000882309F4A6C1853239F493FD859193FFFD
:1008D00081916F01853221F4B70190E0BAD1E8CF60
:1008E000712C312C20E02032A8F48B3261F028F4F6
:1008F000803251F0833271F40BC08D3239F0803385
:1009000049F4216028C02260246025C0286023C0EB
:10091000206121C027FD27C0382F30533A3078F4AA
:1009200026FF06C0FAE07F9E300D1124732E13C0FF
:100930008AE0389E300D1124332E20620CC08E3296
:1009400021F426FD66C1206406C08C3611F42068AF
:1009500002C0883641F4F60193FD859193FF8191A1
:100960006F018111C0CF982F9554933018F0905299
:10097000933028F40C5F1F4FFFE3F9830DC08336DB
:1009800031F0833771F0833509F05AC022C0F80185
:10099000808189830E5F1F4F66246394712C5401FC
:1009A00014C02801F2E04F0E511CF801A080B18064
:1009B00026FF03C0672D70E002C06FEF7FEFC50117
:1009C0002C873CD13C0182012C856FE7262E222208
:1009D00017C02801F2E04F0E511CF801A080B18031
:1009E00026FF03C0672D70E002C06FEF7FEFC501E7
:1009F0002C8719D13C012C8550E8252E222A820112
:100A000023FC1AC005C0B70180E290E022D13A94DD
:100A1000832D90E068167906B0F30EC0F50127FC2F
:100A2000859127FE81915F01B70190E012D13110CD
:100A30003A94F1E06F1A71086114710479F7E6C015
:100A4000843611F0893639F5F80127FF07C0608137
:100A50007181828193810C5F1F4F08C06081718119
:100A6000882777FD8095982F0E5F1F4F4FE6642EE5
:100A7000622297FF09C090958095709561957F4F90
:100A80008F4F9F4FF0E86F2A2AE030E0A4010DD18C
:100A9000A82EA81843C0853731F43FEEB32EB222FA
:100AA0002AE030E024C099EFB92EB2228F36B9F097
:100AB00020F4883509F0ADC00DC0803721F08837AB
:100AC00009F0A7C002C020E1B22AB4FE0BC084E046
:100AD000B82A08C024FF09C0E6E0BE2A06C028E004
:100AE00030E005C020E130E002C020E132E0F80152
:100AF000B7FE07C060817181828193810C5F1F4FB7
:100B000006C06081718180E090E00E5F1F4FA401FC
:100B1000CCD0A82EA8188FE7682E6B2066FE0BC0DD
:100B2000362D3E7FA71450F464FE0AC062FC08C054
:100B3000362D3E7E05C0BA2C362D03C0BA2C01C01E
:100B4000B72C34FF0DC0FE01EA0DF11D808180330A
:100B500011F4397E09C032FF06C0B394B39404C0C7
:100B6000832F867809F0B39433FD13C030FF0EC095
:100B70007A2CB31458F4730C7B18B32C07C0B7014C
:100B800080E290E03C8765D0B3943C85B314B8F321
:100B900004C0B31410F43B1801C0312C34FF11C051
:100BA000B70180E390E03C8754D03C8532FF1CC005
:100BB00031FF03C088E590E002C088E790E0B7010C
:100BC0000CC0832F867881F031FD02C080E201C025
:100BD0008BE237FD8DE2B70190E03BD005C0B70155
:100BE00080E390E036D07A94A714C8F3AA94F40175
:100BF000EA0DF11DB701808190E02BD0A110F6CF56
:100C000005C0B70180E290E024D03A943110F9CFCA
:100C10004FCEF7012681378102C02FEF3FEFC90188
:100C20002C96E2E1BCC0FC010590615070400110BF
:100C3000D8F7809590958E0F9F1F0895FC01615005
:100C4000704001900110D8F7809590958E0F9F1FEE
:100C500008950F931F93CF93DF938C01EB018B814A
:100C600081FD03C00FEF1FEF1AC082FF0DC02E8160
:100C70003F818C819D812817390764F4E881F981CF
:100C80000193F983E88306C0E885F985802F0995EB
:100C9000892B41F78E819F8101969F838E83C801A6
:100CA000DF91CF911F910F910895FA01AA27283063
:100CB00051F1203181F1E8946F936E7F6E5F7F4F29
:100CC0008F4F9F4FAF4FB1E03ED0B4E03CD0670FA5
:100CD000781F891F9A1FA11D680F791F8A1F911DF8
:100CE000A11D6A0F711D811D911DA11D20D009F448
:100CF00068943F912AE0269F11243019305D31938A
:100D0000DEF6CF010895462F4770405D4193B3E072
:100D10000FD0C9F7F6CF462F4F70405D4A3318F019
:100D2000495D31FD4052419302D0A9F7EACFB4E0CA
:100D3000A6959795879577956795BA95C9F7009782
:100D40006105710508959B01AC010A2E0694579523
:100D5000479537952795BA95C9F7620F731F841F7A
:100D6000951FA01D08952F923F924F925F926F9210
:100D70007F928F929F92AF92BF92CF92DF92EF922B
:100D8000FF920F931F93CF93DF93CDB7DEB7CA1BAC
:100D9000DB0B0FB6F894DEBF0FBECDBF09942A88D7
:100DA000398848885F846E847D848C849B84AA847F
:100DB000B984C884DF80EE80FD800C811B81AA810C
:100DC000B981CE0FD11D0FB6F894DEBF0FBECDBFD7
:080DD000ED010895F894FFCF36
:100DD8000000000100000000000091020000000077
:100DE80000020000000083020000000000008101F2
:100DF800200057726974696E6720257520746F200A
:100E08007468652050574D2070696E2E0A000909D4
:100E18000909566F6C746167652064697669646551
:0E0E2800722072656164733A2025750A00001D
:00000001FF
