:100000000C9434000C9451000C9451000C94510049
:100010000C9451000C9451000C9451000C94170B4B
:100020000C9451000C9451000C9451000C9451000C
:100030000C9451000C9451000C9451000C945100FC
:100040000C9451000C9451000C9481060C94B4064D
:100050000C9451000C9451000C9451000C945100DC
:100060000C9451000C94510011241FBECFEFD8E026
:10007000DEBFCDBF11E0A0E0B1E0E6E7F1E202C0F3
:1000800005900D92AC3AB107D9F712E0ACEAB1E0B5
:1000900001C01D92A932B107E1F70E944D0C0C94EA
:1000A000B9100C940000A0E2B0E0E9E5F0E00C9497
:1000B0009E0C6D8F7E8F8F8F98A3298F3A8F4B8FD9
:1000C0005C8FBE016F5E7F4FCE014D960E947F0315
:1000D000BE01675F7F4FCE0149960E947F039989D9
:1000E000923008F412C08985823008F41AC0943026
:1000F00021F4823009F4B4C008C0843021F4923075
:1001000009F4AEC00EC0923051F481E02A899A857C
:10011000291301C080E08A8BCE014196A3C08230B2
:1001200051F481E02A899A85291301C080E08A87E9
:10013000CE01099697C08D889E88AF88B88C0D85B2
:100140001E852F853889E0E2F0E080E090E0DC0158
:10015000C12CD12C760140E050E0BA0180FE18C0DD
:10016000400F511F621F731F8C0D9D1DAE1DBF1DC3
:10017000412C512C320143944017510762077307F9
:1001800018F0412C512C3201840D951DA61DB71D70
:10019000CC0CDD1CEE1CFF1C37FF02C06894C0F8BD
:1001A000000F111F221F331FB694A79497948794B2
:1001B0003197A1F62B893C89EB85FC852E0F3F1FDB
:1001C0002E5F3F4F3C832B8321E0EA893A85E3137E
:1001D00001C020E02A83EB81FC810CC080FF05C0B8
:1001E00076956795579547957068B695A7959795B5
:1001F00087953196B7FDF2CF9F010CC0880F991FEC
:10020000AA1FBB1F77FD8160440F551F661F771F14
:10021000215031090097A105E0E4BE0778F32B8354
:100220003C838C019D010F7711272227332700344F
:1002300011052105310559F487FD09C0452B462BD1
:10024000472B29F0805C9F4FAF4FBF4F80788D8345
:100250009E83AF83B88783E08983CE01019602C075
:1002600080E391E00E94B502A096E0E10C94BA0C04
:10027000A8E1B0E0EEE3F1E00C94A60C6D8B7E8B70
:100280008F8B988F298B3A8B4B8B5C8BBE01675F72
:100290007F4FCE0145960E947F03BE016F5F7F4F67
:1002A000CE0141960E947F039985923008F475C073
:1002B0008981823008F474C02A853A8123272A87ED
:1002C000943011F0923019F4981367C06CC08430E8
:1002D00039F41D861E861F86188A1C861B8604C05C
:1002E000823029F484E08987CE0109965EC08B852F
:1002F0009C852B813C81821B930B9C878B874D8532
:100300005E856F857889CD80DE80EF80F8844C151E
:100310005D056E057F0538F4440F551F661F771F76
:1003200001979C878B87EFE1F0E000E010E020E090
:1003300030E480E090E0DC014C155D056E057F0542
:1003400040F0802B912BA22BB32B4C195D096E0929
:100350007F093695279517950795440F551F661FFA
:10036000771F319749F78C019D010F7711272227BD
:100370003327003411052105310559F487FD09C0E3
:10038000452B462B472B29F0805C9F4FAF4FBF4F2B
:1003900080788D879E87AF87B88BCE01099605C080
:1003A000CE01019602C080E391E00E94B5026896FA
:1003B000E8E00C94C20CA8E1B0E0E1EEF1E00C94AE
:1003C000AC0C6D8B7E8B8F8B988F298B3A8B4B8BE4
:1003D0005C8BBE01675F7F4FCE0145960E947F0315
:1003E000BE016F5F7F4FCE0141960E947F038985DA
:1003F000823058F08981823040F0BE016F5F7F4FBC
:10040000CE0109960E94EE0301C08FEF6896E2E0EC
:100410000C94C80CA8E0B0E0E0E1F2E00C94AA0C67
:1004200023E029838B019C01002737FD03951127C9
:1004300022273327402F0A83611571058105910515
:1004400019F482E0898335C02EE130E03C832B83B0
:10045000442371F061157105810520E8920771F15F
:10046000002711279801061B170B280B390B02C018
:100470008B019C01C901B8010E94D30C0197181689
:1004800019062CF00D831E832F83388712C0082E87
:1004900004C0000F111F221F331F0A94D2F70D83CF
:1004A0001E832F8338872EE130E0281B390B3C83D5
:1004B0002B83CE0101960E94B50204C060E070E07B
:1004C00080E09FEC2896E4E00C94C60CACE0B0E031
:1004D000ECE6F2E00C94AA0C69877A878B879C87FC
:1004E000BE016F5F7F4FCE0109960E947F03898115
:1004F000823091F1823080F1843041F48A81882306
:1005000031F100E010E020E030E829C02B813C818F
:1005100037FD22C02F3131058CF78EE190E0821B30
:10052000930B0D811E812F81388504C03695279548
:10053000179507958A95D2F78A81882381F030959F
:100540002095109501951F4F2F4F3F4F08C00FEF7B
:100550001FEF2FEF3FE703C000E010E09801B80164
:10056000C9012C96E4E00C94C60C0F931F93CF9313
:10057000DF93DC0114964D915D916D917C911797FD
:100580001196EC9111978C91823020F460618FEF7D
:1005900090E0A6C0843009F49EC0823009F495C072
:1005A000411551056105710509F492C012962D910E
:1005B0003C91139722388FEF38070CF058C0C2E8EF
:1005C000DFEFC21BD30BCA31D1056CF58A019B0149
:1005D0000C2E04C036952795179507950A94D2F7E7
:1005E00081E090E0A0E0B0E00C2E04C0880F991FDD
:1005F000AA1FBB1F0A94D2F70197A109B10984234E
:100600009523A623B72341E050E060E070E0892BFA
:100610008A2B8B2B19F440E050E0BA01402B512B70
:10062000622B732B03C040E050E0BA01DB01CA012A
:100630008F779927AA27BB2780349105A105B1059B
:1006400039F447FF09C0405C5F4F6F4F7F4F04C0D4
:10065000415C5F4F6F4F7F4F81E090E04115510546
:10066000610520E4720748F580E090E026C020385C
:1006700031058CF5DB01CA018F779927AA27BB27A3
:1006800080349105A105B10539F447FF09C0405CEC
:100690005F4F6F4F7F4F04C0415C5F4F6F4F7F4F85
:1006A00077FD04C0C90181589F4F07C076956795B3
:1006B00057954795C90180589F4F97E07695679564
:1006C000579547959A95D1F70BC080E090E005C00B
:1006D00080E090E005C08FEF90E040E050E0BA018C
:1006E000982F9695E0FB97F9362F80FB37F9642F0A
:1006F000752F832FDF91CF911F910F910895CF9286
:10070000DF92EF92DC01FB01CC901196DC90119707
:1007100012968C9112973FE7E32EE8226E2DA601E8
:1007200070E0982F991F9927991F13962C91822F6B
:10073000880F892B90E027FB222720F9218300973F
:1007400029F5411551056105710511F482E027C0B5
:1007500082E89FEF9383828327E0440F551F661F33
:10076000771F2A95D1F783E0808309C0440F551F76
:10077000661F771F8281938101979383828341153E
:100780005105610580E4780788F320C08F3F91050B
:1007900079F4411551056105710519F484E08083F0
:1007A00019C0E4FE03C081E0808310C010820EC037
:1007B0008F5791099383828383E0808387E0440F7E
:1007C000551F661F771F8A95D1F770644483558340
:1007D00066837783EF90DF90CF900895CF93FC01ED
:1007E000DB019081923008F452C08C91823008F481
:1007F0004EC0943071F4843039F411962C9130E06D
:100800008181281B310948C08181882309F43FC0B8
:100810003BC0843029F411968C91811138C034C0CA
:10082000923019F48230B9F735C0823069F3C18152
:1008300011968C911197C8131DC022813381129695
:100840008D919C911397821793070CF413C028176E
:1008500039070CF417C0448155816681778114965D
:100860008D919D910D90BC91A02D84179507A607A1
:10087000B70718F4C11108C00AC0481759076A071A
:100880007B0740F4C11103C02FEF3FEF05C021E00B
:1008900030E002C020E030E0C901CF910895089512
:1008A0004C9B21C05A9A809109028230B8F0109274
:1008B000090280910C021F928F9388E391E09F932D
:1008C0008F930E94250E80910C028093B4008F5F5D
:1008D00080930C020F900F900F900F9080910B025D
:1008E000843118F408955A98DECF10920B0280E0FC
:1008F0000E945D099F938F9384E591E09F938F936E
:100900000E94250E0F900F900F900F9008959BB1AD
:1009100090699BB9813021F088EC87BD88BD08952E
:100920008AEA87BD88BD08959BB19F769BB98130C7
:1009300021F088EC87BD88BD08958AEA87BD88BD0F
:1009400008959BB19F769BB917BC813019F088EC54
:1009500088BD08958AEA88BD08959BB19F769BB9AA
:10096000813021F088EC87BD18BC08958AEA87BDE4
:1009700018BC089517BC18BC08955F9A5C988AEA61
:1009800087BD88BD089507C0EFE9FFE03197F1F713
:1009900000C0000001970097B9F7089505C025E051
:1009A0002A95F1F7000001970097C9F70895089577
:1009B000CF9380910E02882349F010920E0280910D
:1009C000AC01882309F47CC01092AC0180910F0225
:1009D000863070F010920F02C091AE01C13009F460
:1009E0008DC08091B101882309F4C5C01092B10176
:1009F00080910D028730E0F010920D02C091AE019F
:100A0000C13009F48CC08091B701882309F4CFC0AC
:100A10001092B7019091B6018091B90191FF34C055
:100A200092E09093B60181FF29C082E08093B901E2
:100A300080911002882301F1109210028091AE0182
:100A4000813089F18091BA01823009F4ECC0809143
:100A5000BB0181111FC081E08093BB018091B9016E
:100A6000823008F479C08091AD01843609F4EAC07F
:100A70000E94BA04289A4398CF91089580FF3BC002
:100A800081E08093B901D4CF90FF32C091E0909380
:100A9000B601C9CF8091BA018F5F8093BA011092DD
:100AA000BB01CF9108958091B601813009F4CEC089
:100AB00008F0AEC02898439A81E0CF910C9494043A
:100AC000C1E0C093AC011092AD010E9497071816C7
:100AD00019060CF07BCF0E94F7068093AD0181369A
:100AE00009F4BAC0813709F071CF1092AE016ECF10
:100AF0001092B60198CF1092B9019ACF1092AF011F
:100B00000E945D068093AF01982F94519A3008F4AB
:100B100093C08E3108F4AFC0C093B00169CF10927A
:100B2000B4011092B3010E94F9079093B40180932D
:100B3000B3019C01245131092A30310508F478C0F1
:100B40004E9708F494C0C093B50181E09091B00134
:100B5000982B8091B90162CF2898439A9091AD016A
:100B60009C3609F46CC008F07AC0943609F46BC066
:100B7000CF910C94BA0481E08093B1011092AF013F
:100B80000E945D068093AF011F928F9383E791E0EF
:100B90009F938F930E94250E0F900F900F900F90B0
:100BA0008091AF01853158F11092B20121CF81E0DF
:100BB0008093B7011092B4011092B3010E94F9071B
:100BC0008093B3019093B4019F938F9385E891E054
:100BD0009F938F930E94250E0F900F900F900F9070
:100BE0008091B3019091B401459768F01092B801DB
:100BF00090E08091B201892B9091B6010FCF82E0F5
:100C00008093B201F5CE82E08093B80192E0F1CFFB
:100C1000823009F031CF80E00E9487040E94BD0439
:100C2000289A439829CF0E94BA041092BA010FCF94
:100C30001092B50180E08ACF1092B001D9CECF9149
:100C40000C94A10481E0CF910C9487042898439AD6
:100C500080E0CF910C949404C093AE01B7CE92374C
:100C600071F0953709F084CFCF910C94940482E011
:100C70008093B5016BCF82E08093B001B9CECF9164
:100C80000C94AD04CF93CFE1289A8BE490E00E94BE
:100C9000CE0428988BE490E00E94CE04C150A1F7C6
:100CA000CF910895BC016350710983E89AE10E94D5
:100CB000740C64507109CB01089548E080E090E025
:100CC00020917A00206420937A0020917A0026FDFA
:100CD000FCCF2091780030917900820F931F415012
:100CE00079F7BC01759567957595679575956795C5
:100CF0006350710983E89AE10E94740C862F845036
:100D000008951F920F920FB60F9211242F938F9375
:100D10009F93EF93FF939091C0008091C600109233
:100D200011028136D9F09871E091BE01EF5FEF7149
:100D30002091BD01E217B1F0E093BE01F0E0EF5366
:100D4000FE4F80839093BC01FF91EF919F918F9113
:100D50002F910F900FBE0F901F90189521E02093B8
:100D60001102E1CF92E0EECF1F920F920FB60F92D9
:100D700011248F939F93EF93FF939091C0018091E3
:100D8000BF019817A9F0E091BF01EF5FEF71E09309
:100D9000BF01F0E0EF51FE4F80818093C600FF91CC
:100DA000EF919F918F910F900FBE0F901F9018950C
:100DB0008091C1008F7D8093C100F1CF1092C0015E
:100DC0001092BF011092BE011092BD0197FF04C0A6
:100DD00022E02093C0009F779093C5008093C400C9
:100DE00088E98093C10086E08093C20008959091C5
:100DF000BE018091BD01981791F0E091BD01EF5FB8
:100E0000EF71E093BD01F0E0EF53FE4F80819091D0
:100E1000BC01392F20E0280F311DC901089520E0C1
:100E200031E0C90108952091C0012F5F2F71909189
:100E3000BF012917E1F3E22FF0E0EF51FE4F80836D
:100E40002093C0018091C10080628093C100089509
:100E5000FC0120812223C9F0DC0111969091C00190
:100E60009F5F9F718091BF019817E1F3E92FF0E038
:100E7000EF51FE4F20839093C0018091C1008062AA
:100E80008093C1002D912111E9CF08959C012F5F1E
:100E90003F4FFC0184918823D1F04091C0014F5F06
:100EA0004F719091BF014917E1F3A42FB0E0AF510A
:100EB000BE4F8C934093C0018091C10080628093AB
:100EC000C100F9012F5F3F4F84918111E6CF089552
:100ED0008A30B9F02091C0012F5F2F719091BF012E
:100EE0002917E1F3E22FF0E0EF51FE4F80832093CA
:100EF000C0018091C10080628093C10080E090E0D9
:100F000008952091C0012F5F2F719091BF01291783
:100F1000E1F3E22FF0E0EF51FE4F9DE0908320934C
:100F2000C0019091C10090629093C100D3CF809195
:100F3000BE012091BD0190E04F96821B91096FE1A7
:100F400070E00E94740C08958091BD018093BE01F1
:100F5000089580EC97E2A9E0B0E0319907C00197CD
:100F6000A109B109D1F72FEF3FEF3DC010928000EA
:100F7000809180008F7780938000809180008F7BAC
:100F800080938000809180008F7D8093800080918D
:100F900080008F7E8093800082E080938100109299
:100FA00085001092840080EC97E2A9E0B0E0319BCC
:100FB0000EC0209184003091850021363A4E38F4DD
:100FC0000197A109B10999F720EF30EF0CC02091EA
:100FD0008400309185001092810021368AEE380716
:100FE00020F025EB3AEFC901089536952795C90100
:100FF0000895CF93DF933A9A429882E090E00E945E
:10100000CE04429A8AE090E00E94CE044298399839
:101010000E94A9079C01AFE9B6E40E94680CEC01AC
:10102000D295C295CF70CD27DF70CD27DF93CF93B8
:101030008AE991E09F938F930E94250E0F900F9065
:101040000F900F90CE01DF91CF9108951F93CF9312
:10105000DF93EC0116E0AE0168EC70E085E090E013
:101060000E9481081150B9F7DF91CF911F91089527
:10107000EF92FF920F931F93CF93DF9318161906E9
:101080003CF52C9A8C0197FD27C088EE93E00E94D6
:10109000740C86E4869F9001879F300D1124011502
:1010A000110579F07901C0E0D0E02D9AC7010E94C6
:1010B000CE042D98C7010E94CE042196C017D107F7
:1010C000A1F7DF91CF911F910F91FF90EF900895BD
:1010D0002C988C0197FFD9CF119501951109D5CF87
:1010E000CF93CBE01B990AC068EC70E08BEF9FEFC9
:1010F0000E943808C150B1F7CF910895CF910C9458
:101100004206BF92CF92DF92EF92FF920F931F930E
:10111000CF93DF936A0118161906C4F52C9A7C0147
:1011200097FD38C088EE93E00E94740C86E4869F99
:10113000E001879FD00D1124E114F10479F100E062
:1011400010E00DC02D9ACE010E94CE042D98CE0144
:101150000E94CE040F5F1F4F0E151F05A1F0C601A0
:101160000E94F907B82E81E0B812ECCF21E030E000
:10117000C901DF91CF911F910F91FF90EF90DF9008
:10118000CF90BF9008952B2D30E0F2CF2C987C01AA
:1011900097FFC8CFF194E194F108C4CF20E030E08C
:1011A000E7CF8F929F92AF92BF92CF92DF92EF9252
:1011B000FF926B017C0149015A0120E030E0A90156
:1011C0000E94DB0118160CF043C02C9AC701B6012F
:1011D0000E94660277FD43C0882777FD8095982F8F
:1011E0000E940A0224EE38E34EE850E40E945300C5
:1011F0000E9466027B01A501940160E070E080E836
:101200009FE30E94380120E030E04CE852E40E9465
:1012100053000E9466021E141F048CF45B01C12C53
:10122000D12C2D9AC5010E94CE042D98C5010E9493
:10123000CE048FEFC81AD80ACE14DF0491F7FF90BE
:10124000EF90DF90CF90BF90AF909F908F900895D8
:101250002C98C701B6010E94660277FFBDCF719539
:1012600061957109B9CF64E670E089E190E00E9470
:10127000380882E390E00E94C30464E670E087EEE1
:101280009FEF0E94380882E390E00C94C30480E44E
:1012900080937C00EAE7F0E087E0808380818068CB
:1012A0008083089580E680937C00EAE7F0E085E0A3
:1012B0008083808180688083089590917C00907FF6
:1012C00090937C0090917C00982B90937C0080916F
:1012D0007A00806480937A0080917A0086FDFCCF4A
:1012E0002091780030917900C901089590917C0097
:1012F000907F90937C0090917C00982B90937C0041
:1013000080917A00806480937A0080917A0086FDD3
:10131000FCCF809179000895EAE7F0E080818F7733
:1013200080830895ECE7F0E0808180648083808191
:101330008F7780830895ECE7F0E08081806C808374
:101340000895FC01408121E030E0062E01C0220F0B
:101350000A94EAF74227408308950895CF92DF92D6
:10136000EF92FF920F931F9368017901FC014111E5
:1013700024C0408121E030E0062E01C0220F0A94F3
:10138000EAF720952423208300911402109115027E
:1013900020911602309117020C0D1D1D2E1D3F1DB0
:1013A000462FBC0182E192E00E941A0A1F910F9120
:1013B000FF90EF90DF90CF900895408121E030E0E2
:1013C000062E01C0220F0A94EAF7422B4083DCCF9D
:1013D000409114025091150260911602709117020B
:1013E00021EA39E082E192E00C94590A880F815099
:1013F0008093010208958091020290911802811158
:1014000002C0923360F4943148F095B120E2922703
:1014100095B910921802815080930202089585B107
:1014200090E2892785B91092180280910102809379
:10143000020208958F929F92AF92BF92CF92DF9255
:10144000EF92FF920F931F93CF93DF931F92CDB72D
:10145000DEB74C015B016801790189E090E04983C6
:101460000E94EE0CFC014981009701F1B182A0823B
:101470004283C382D482E582F682D4018D919C910D
:10148000119790878783ED93FC9320E030E0C901AA
:101490000F90DF91CF911F910F91FF90EF90DF9010
:1014A000CF90BF90AF909F908F9008952FEF3FEF18
:1014B000EECF4F925F926F927F92AF92BF92CF9298
:1014C000DF92EF92FF920F931F93CF93DF937C01F4
:1014D0002A013B016901FC01C081D181209741F1C2
:1014E0005E0107C09F8188855E01C92FD82F209794
:1014F000F9F00B811C812D813E8140165106620658
:10150000730680F36A8188819981F60109950F81BC
:101510001885F70180819181C817D907D1F0F501AD
:1015200007831087CE010E94890DE801209709F7F3
:1015300080E090E0DF91CF911F910F91FF90EF90AD
:10154000DF90CF90BF90AF907F906F905F904F9063
:10155000089500831183E6CF2FEFFC0120830895C7
:1015600088349105E9F038F0833B910501F1843B23
:10157000910559F0089587349105E1F784B5836C9E
:1015800084BD85B5816085BD08958091B000836379
:101590008093B0008091B10081608093B100089584
:1015A00084B5836384BD85B5816085BD08958091D0
:1015B000B000836C8093B0008091B1008160809313
:1015C000B10008950F931F9389019A01FC01608374
:1015D00040911B0250911C0260911D0270911E02ED
:1015E000040F151F261F371F40E0BC0189E192E060
:1015F0000E941A0A1F910F91089540911B02509169
:101600001C0260911D0270911E022CEA3AE089E1F1
:1016100092E00C94590AE1EBF0E0808184608083D1
:1016200082E38093B30082E08093700008951F925C
:101630000F920FB60F9211248F93EF93FF93E3EB6A
:10164000F0E080818E5C8083809103028F5F8093C5
:101650000302FF91EF918F910F900FBE0F901F909B
:101660001895F8948091030290910402282F291B69
:1016700080930402789480910502820F853088F56A
:101680008093050280910602820F809306028233C6
:1016900038F1825380930602809118028F5F809305
:1016A000180280910F028F5F80930F0280910D02CC
:1016B0008F5F80930D02809107028F5F8530D8F590
:1016C00080930702809108028F5F809308028A301E
:1016D00038F010920802809110028F5F8093100200
:1016E000089585508093050280911402909115020F
:1016F000A0911602B09117020196A11DB11D809311
:10170000140290931502A0931602B09317028091D1
:101710001B0290911C02A0911D02B0911E02019625
:10172000A11DB11D80931B0290931C02A0931D026A
:10173000B0931E02A7CF1092070280910E028F5F16
:1017400080930E02BFCFCF93C82F8A3041F0909183
:10175000C00095FFFCCFC093C600CF9108958DE0E7
:101760000E94A30BF4CF8091C00087FFFCCF809133
:10177000C600089584E191E09093260280932502AB
:1017800086E091E090932402809323021092C5009A
:1017900087E68093C400E0ECF0E080818D7F808359
:1017A00086E08093C20088E18093C1000895259A65
:1017B00008958AB1806F8AB985B5877F85BD84B564
:1017C0008D7F84BD84B5816084BD84B5806884BD0F
:1017D00084B58F7B84BD84B5806284BD84B58F7EE3
:1017E00084BD85B58B7F85BD85B58D7F85BD85B570
:1017F000816085BD17BC18BC0895389880917C0025
:101800008F7780937C0080917C008F7B80937C001D
:1018100080917A00846080937A0080917A0082605F
:1018200080937A0080917A00816080937A00809121
:101830007A00806880937A0080917C00877F809313
:101840007C0080917C008B7F80937C0080917C0069
:101850008D7F80937C0080917C008E7F80937C00C4
:1018600080917E00816080937E0080917A00806408
:1018700080937A0080917A0086FDFCCF089587E6F8
:1018800090E00E94DE0682E291E09093260280932F
:1018900025020895209A3B9A0895259A0E940B0BE1
:1018A00081E00E94F60987B1886387B90E943F0CE6
:1018B0000E94FD0B0E94D90B209A3B9A0E94D704EC
:1018C00078940E94310B0E94FB090E94D804F9CF42
:1018D000A29FB001B39FC001A39F01D0B29F700D22
:1018E000811D1124911D089597FB072E16F4009475
:1018F00007D077FD09D00E94880C07FC05D03EF484
:10190000909581959F4F0895709561957F4F0895AB
:10191000AA1BBB1B51E107C0AA1FBB1FA617B70715
:1019200010F0A61BB70B881F991F5A95A9F7809531
:101930009095BC01CD0108952F923F924F925F92F6
:101940006F927F928F929F92AF92BF92CF92DF92CF
:10195000EF92FF920F931F93CF93DF93CDB7DEB734
:10196000CA1BDB0B0FB6F894DEBF0FBECDBF0994C8
:101970002A88398848885F846E847D848C849B841F
:10198000AA84B984C884DF80EE80FD800C811B812D
:10199000AA81B981CE0FD11D0FB6F894DEBF0FBE5C
:1019A000CDBFED0108950E94DC0C84FF0895CB01AA
:1019B0000E94DC0C805F0895AA27992329F4A85F70
:1019C000982B11F480E10895903118F4AD5F929551
:1019D000A395990FE8F78A2F992708950F931F93DE
:1019E000CF93DF938230910510F482E090E0E09194
:1019F0002102F091220220E030E0C0E0D0E023C0DC
:101A00004081518148175907A8F04817590761F4D8
:101A100082819381209719F09B838A832EC09093B3
:101A200022028093210229C02115310529F0421795
:101A3000530710F0A90102C0BE01DF01028113812A
:101A4000EF019A01F8013097D9F62115310509F116
:101A5000281B390B2430310590F412968D919C91FE
:101A600013976115710521F0FB019383828304C0F4
:101A70009093220280932102FD01329644C0FD0121
:101A8000E20FF31F81939193225031092D933C93E0
:101A90003AC020911F0230912002232B41F4209163
:101AA0000201309103013093200220931F02209104
:101AB0000001309101012115310541F42DB73EB7E8
:101AC0004091040150910501241B350BE0911F0248
:101AD000F0912002E217F307A0F42E1B3F0B28170A
:101AE000390778F0AC014E5F5F4F2417350748F097
:101AF0004E0F5F1F5093200240931F0281939193DA
:101B000002C0E0E0F0E0CF01DF91CF911F910F9193
:101B10000895EF92FF920F931F93CF93DF93009757
:101B200009F48EC0DC01129713961C921E92129734
:101B3000E0902102F0902202E114F10489F42D9149
:101B40003C911197280F391F80911F02909120021C
:101B50008217930789F5B0932002A0931F0270C0EB
:101B6000E70120E030E001C0EA01CA17DB0738F4E2
:101B70004A815B819E0141155105B1F722C0AC013C
:101B800042505109FA01D383C28300811181BC0103
:101B9000600F711F6C177D0761F468817981600F98
:101BA000711F6E5F7F4F718360836A817B81738356
:101BB00062832115310529F4B0932202A0932102FA
:101BC0003FC0F901B383A283E90149915991C40F40
:101BD000D51FAC17BD0771F4DC019E918E91840F67
:101BE000951F02969183808312968D919C911397F5
:101BF00093838283A0E0B0E002C0D7017C01F701AB
:101C0000828193810097C9F7C701029620813181B3
:101C1000820F931F20911F0230912002281739074D
:101C200079F4109729F4109222021092210204C034
:101C300013961C921E921297F0922002E0921F02BD
:101C4000CDB7DEB7E6E00C94C40CA2E0B0E0EBE266
:101C5000FEE00C94AC0CFE01379661917191FA8311
:101C6000E983AF0180912502909126020E943C0EEB
:101C70002296E2E00C94C80CACE0B0E0E2E4FEE0B6
:101C80000C949C0C7C016B018A01FC01178216826A
:101C9000838181FFC7C188248394912C8C0E9D1E63
:101CA000F7019381F60193FD859193FF81916F0177
:101CB000882309F4B3C1853239F493FD859193FFEC
:101CC00081916F01853229F4B70190E00E942F10B5
:101CD000E7CF712C312C20E02032A8F48B3261F058
:101CE00028F4803251F0833271F40BC08D3239F018
:101CF000803349F4216028C02260246025C0286018
:101D000023C0206121C027FD27C0382F30533A302F
:101D100078F426FF06C0FAE07F9E300D1124732E62
:101D200013C08AE0389E300D1124332E20620CC07F
:101D30008E3221F426FD72C1206406C08C3611F467
:101D4000206802C0883641F4F60193FD859193FF27
:101D500081916F018111C0CF982F9554933018F065
:101D60009052933028F40C5F1F4FFFE3F9830DC0AE
:101D7000833631F0833771F0833509F05EC023C0BC
:101D8000F801808189830E5F1F4F66246394712C54
:101D9000540115C02801F2E04F0E511CF801A0803B
:101DA000B18026FF03C0672D70E002C06FEF7FEFA8
:101DB000C5012C870E9424103C0182012C856FE70D
:101DC000262E222218C02801F2E04F0E511CF801E5
:101DD000A080B18026FF03C0672D70E002C06FEFC6
:101DE0007FEFC5012C870E9419103C012C8550E81B
:101DF000252E222A820123FC1CC006C0B70180E2E6
:101E000090E00E942F103A94832D90E06816790696
:101E1000A8F30FC0F50127FC859127FE81915F0192
:101E2000B70190E00E942F1031103A94F1E06F1A40
:101E300071086114710471F7EEC0843611F08936AF
:101E400041F5F80127FF07C060817181828193818C
:101E50000C5F1F4F08C060817181882777FD8095D6
:101E6000982F0E5F1F4F4FE6642E622297FF09C026
:101E700090958095709561957F4F8F4F9F4FF0E8BB
:101E80006F2A2AE030E0A4010E945B10A82EA81857
:101E900044C0853731F43FEEB32EB2222AE030E061
:101EA00024C099EFB92EB2228F36B9F020F48835CC
:101EB00009F0B4C00DC0803721F0883709F0AEC0FA
:101EC00002C020E1B22AB4FE0BC084E0B82A08C0E8
:101ED00024FF09C0E6E0BE2A06C028E030E005C0C5
:101EE00020E130E002C020E132E0F801B7FE07C097
:101EF00060817181828193810C5F1F4F06C0608178
:101F0000718180E090E00E5F1F4FA4010E945B1082
:101F1000A82EA8188FE7682E6B2066FE0BC0362D02
:101F20003E7FA71450F464FE0AC062FC08C0362D40
:101F30003E7E05C0BA2C362D03C0BA2C01C0B72C8A
:101F400034FF0DC0FE01EA0DF11D8081803311F4D4
:101F5000397E09C032FF06C0B394B39404C0832F06
:101F6000867809F0B39433FD14C030FF0FC07A2C8B
:101F7000B31460F4730C7B18B32C08C0B70180E273
:101F800090E03C870E942F10B3943C85B314B0F3CB
:101F900004C0B31410F43B1801C0312C34FF12C03C
:101FA000B70180E390E03C870E942F103C8532FF10
:101FB0001EC031FF03C088E590E002C088E790E0D2
:101FC000B7010CC0832F867891F031FD02C080E20A
:101FD00001C08BE237FD8DE2B70190E00E942F1027
:101FE00006C0B70180E390E00E942F107A94A714F6
:101FF000C0F3AA94F401EA0DF11DB701808190E0CD
:102000000E942F10A110F5CF06C0B70180E290E02A
:102010000E942F103A943110F8CF42CEF70126815A
:10202000378102C02FEF3FEFC9012C96E2E10C94FB
:10203000B80CFC010590615070400110D8F78095F4
:1020400090958E0F9F1F0895FC0161507040019084
:102050000110D8F7809590958E0F9F1F08950F93CC
:102060001F93CF93DF938C01EB018B8181FD03C024
:102070000FEF1FEF1AC082FF0DC02E813F818C81B0
:102080009D812817390764F4E881F9810193F98368
:10209000E88306C0E885F985802F0995892B41F7EB
:1020A0008E819F8101969F838E83C801DF91CF919E
:1020B0001F910F910895FA01AA27283051F120317C
:1020C00081F1E8946F936E7F6E5F7F4F8F4F9F4FCC
:1020D000AF4FB1E03ED0B4E03CD0670F781F891F0E
:1020E0009A1FA11D680F791F8A1F911DA11D6A0FDC
:1020F000711D811D911DA11D20D009F468943F918F
:102100002AE0269F11243019305D3193DEF6CF018D
:102110000895462F4770405D4193B3E00FD0C9F753
:10212000F6CF462F4F70405D4A3318F0495D31FDC0
:102130004052419302D0A9F7EACFB4E0A695979513
:10214000879577956795BA95C9F7009761057105E9
:1021500008959B01AC010A2E069457954795379533
:102160002795BA95C9F7620F731F841F951FA01D8D
:062170000895F894FFCF72
:10217600000029022000000000010000000000000D
:10218600B30B00000000000200000000A30B0000DB
:1021960000000000000200000000680700000000C8
:1021A600000000000000000057726974696E672025
:1021B600257520746F207468652050574D2070690E
:1021C6006E2E0A0009090909566F6C74616765204D
:1021D600646976696465722072656164733A202564
:1021E600750A0064697374616E6369615F69723A46
:1021F6002025640A0064697374616E6369615F73A4
:102206006F6E61723A2025640A0044495354414E68
:0C22160043455F434D3A2025640A000058
:00000001FF
