:100000000C9434000C9451000C9451000C94510049
:100010000C9451000C9451000C9451000C9451001C
:100020000C9451000C9451000C9451000C94A60AAD
:100030000C9451000C9451000C9451000C945100FC
:100040000C9451000C9451000C9405060C94380645
:100050000C9451000C9451000C9451000C945100DC
:100060000C9451000C94510011241FBECFEFD8E026
:10007000DEBFCDBF11E0A0E0B1E0E8E8F0E202C0F1
:1000800005900D92A437B107D9F711E0A4E7B1E0CC
:1000900001C01D92AA3EB107E1F70E94DA0B0C9451
:1000A00042100C940000A0E2B0E0E9E5F0E00C940E
:1000B000270C6D8F7E8F8F8F98A3298F3A8F4B8F50
:1000C0005C8FBE016F5E7F4FCE014D960E947F0315
:1000D000BE01675F7F4FCE0149960E947F039989D9
:1000E000923008F412C08985823008F41AC0943026
:1000F00021F4823009F4B4C008C0843021F4923075
:1001000009F4AEC00EC0923051F481E02A899A857C
:10011000291301C080E08A8BCE014196A3C08230B2
:1001200051F481E02A899A85291301C080E08A87E9
:10013000CE01099697C08D889E88AF88B88C0D85B2
:100140001E852F853889E0E2F0E080E090E0DC0158
:10015000C12CD12C760140E050E0BA0180FE18C0DD
:10016000400F511F621F731F8C0D9D1DAE1DBF1DC3
:10017000412C512C320143944017510762077307F9
:1001800018F0412C512C3201840D951DA61DB71D70
:10019000CC0CDD1CEE1CFF1C37FF02C06894C0F8BD
:1001A000000F111F221F331FB694A79497948794B2
:1001B0003197A1F62B893C89EB85FC852E0F3F1FDB
:1001C0002E5F3F4F3C832B8321E0EA893A85E3137E
:1001D00001C020E02A83EB81FC810CC080FF05C0B8
:1001E00076956795579547957068B695A7959795B5
:1001F00087953196B7FDF2CF9F010CC0880F991FEC
:10020000AA1FBB1F77FD8160440F551F661F771F14
:10021000215031090097A105E0E4BE0778F32B8354
:100220003C838C019D010F7711272227332700344F
:1002300011052105310559F487FD09C0452B462BD1
:10024000472B29F0805C9F4FAF4FBF4F80788D8345
:100250009E83AF83B88783E08983CE01019602C075
:1002600080E391E00E94B502A096E0E10C94430C7B
:10027000A8E1B0E0EEE3F1E00C942F0C6D8B7E8BE7
:100280008F8B988F298B3A8B4B8B5C8BBE01675F72
:100290007F4FCE0145960E947F03BE016F5F7F4F67
:1002A000CE0141960E947F039985923008F475C073
:1002B0008981823008F474C02A853A8123272A87ED
:1002C000943011F0923019F4981367C06CC08430E8
:1002D00039F41D861E861F86188A1C861B8604C05C
:1002E000823029F484E08987CE0109965EC08B852F
:1002F0009C852B813C81821B930B9C878B874D8532
:100300005E856F857889CD80DE80EF80F8844C151E
:100310005D056E057F0538F4440F551F661F771F76
:1003200001979C878B87EFE1F0E000E010E020E090
:1003300030E480E090E0DC014C155D056E057F0542
:1003400040F0802B912BA22BB32B4C195D096E0929
:100350007F093695279517950795440F551F661FFA
:10036000771F319749F78C019D010F7711272227BD
:100370003327003411052105310559F487FD09C0E3
:10038000452B462B472B29F0805C9F4FAF4FBF4F2B
:1003900080788D879E87AF87B88BCE01099605C080
:1003A000CE01019602C080E391E00E94B5026896FA
:1003B000E8E00C944B0CA8E1B0E0E1EEF1E00C9425
:1003C000350C6D8B7E8B8F8B988F298B3A8B4B8B5B
:1003D0005C8BBE01675F7F4FCE0145960E947F0315
:1003E000BE016F5F7F4FCE0141960E947F038985DA
:1003F000823058F08981823040F0BE016F5F7F4FBC
:10040000CE0109960E94EE0301C08FEF6896E2E0EC
:100410000C94510CA8E0B0E0E0E1F2E00C94330C55
:1004200023E029838B019C01002737FD03951127C9
:1004300022273327402F0A83611571058105910515
:1004400019F482E0898335C02EE130E03C832B83B0
:10045000442371F061157105810520E8920771F15F
:10046000002711279801061B170B280B390B02C018
:100470008B019C01C901B8010E945C0C0197181600
:1004800019062CF00D831E832F83388712C0082E87
:1004900004C0000F111F221F331F0A94D2F70D83CF
:1004A0001E832F8338872EE130E0281B390B3C83D5
:1004B0002B83CE0101960E94B50204C060E070E07B
:1004C00080E09FEC2896E4E00C944F0CACE0B0E0A8
:1004D000ECE6F2E00C94330C69877A878B879C8773
:1004E000BE016F5F7F4FCE0109960E947F03898115
:1004F000823091F1823080F1843041F48A81882306
:1005000031F100E010E020E030E829C02B813C818F
:1005100037FD22C02F3131058CF78EE190E0821B30
:10052000930B0D811E812F81388504C03695279548
:10053000179507958A95D2F78A81882381F030959F
:100540002095109501951F4F2F4F3F4F08C00FEF7B
:100550001FEF2FEF3FE703C000E010E09801B80164
:10056000C9012C96E4E00C944F0C0F931F93CF938A
:10057000DF93DC0114964D915D916D917C911797FD
:100580001196EC9111978C91823020F460618FEF7D
:1005900090E0A6C0843009F49EC0823009F495C072
:1005A000411551056105710509F492C012962D910E
:1005B0003C91139722388FEF38070CF058C0C2E8EF
:1005C000DFEFC21BD30BCA31D1056CF58A019B0149
:1005D0000C2E04C036952795179507950A94D2F7E7
:1005E00081E090E0A0E0B0E00C2E04C0880F991FDD
:1005F000AA1FBB1F0A94D2F70197A109B10984234E
:100600009523A623B72341E050E060E070E0892BFA
:100610008A2B8B2B19F440E050E0BA01402B512B70
:10062000622B732B03C040E050E0BA01DB01CA012A
:100630008F779927AA27BB2780349105A105B1059B
:1006400039F447FF09C0405C5F4F6F4F7F4F04C0D4
:10065000415C5F4F6F4F7F4F81E090E04115510546
:10066000610520E4720748F580E090E026C020385C
:1006700031058CF5DB01CA018F779927AA27BB27A3
:1006800080349105A105B10539F447FF09C0405CEC
:100690005F4F6F4F7F4F04C0415C5F4F6F4F7F4F85
:1006A00077FD04C0C90181589F4F07C076956795B3
:1006B00057954795C90180589F4F97E07695679564
:1006C000579547959A95D1F70BC080E090E005C00B
:1006D00080E090E005C08FEF90E040E050E0BA018C
:1006E000982F9695E0FB97F9362F80FB37F9642F0A
:1006F000752F832FDF91CF911F910F910895CF9286
:10070000DF92EF92DC01FB01CC901196DC90119707
:1007100012968C9112973FE7E32EE8226E2DA601E8
:1007200070E0982F991F9927991F13962C91822F6B
:10073000880F892B90E027FB222720F9218300973F
:1007400029F5411551056105710511F482E027C0B5
:1007500082E89FEF9383828327E0440F551F661F33
:10076000771F2A95D1F783E0808309C0440F551F76
:10077000661F771F8281938101979383828341153E
:100780005105610580E4780788F320C08F3F91050B
:1007900079F4411551056105710519F484E08083F0
:1007A00019C0E4FE03C081E0808310C010820EC037
:1007B0008F5791099383828383E0808387E0440F7E
:1007C000551F661F771F8A95D1F770644483558340
:1007D00066837783EF90DF90CF900895CF93FC01ED
:1007E000DB019081923008F452C08C91823008F481
:1007F0004EC0943071F4843039F411962C9130E06D
:100800008181281B310948C08181882309F43FC0B8
:100810003BC0843029F411968C91811138C034C0CA
:10082000923019F48230B9F735C0823069F3C18152
:1008300011968C911197C8131DC022813381129695
:100840008D919C911397821793070CF413C028176E
:1008500039070CF417C0448155816681778114965D
:100860008D919D910D90BC91A02D84179507A607A1
:10087000B70718F4C11108C00AC0481759076A071A
:100880007B0740F4C11103C02FEF3FEF05C021E00B
:1008900030E002C020E030E0C901CF910895089512
:1008A0004C9B21C05A9A8091CB018230B8F01092B3
:1008B000CB018091CE011F928F9388E391E09F93AB
:1008C0008F930E94AE0D8091CE018093B4008F5F14
:1008D0008093CE010F900F900F900F908091CD01DB
:1008E000843118F408955A98DECF1092CD0180E03B
:1008F0000E94EB089F938F9384E591E09F938F93E1
:100900000E94AE0D0F900F900F900F9008959BB125
:1009100090699BB9813021F088EC87BD88BD08952E
:100920008AEA87BD88BD08959BB19F769BB98130C7
:1009300021F088EC87BD88BD08958AEA87BD88BD0F
:1009400008959BB19F769BB917BC813019F088EC54
:1009500088BD08958AEA88BD08959BB19F769BB9AA
:10096000813021F088EC87BD18BC08958AEA87BDE4
:1009700018BC089517BC18BC08955F9A5C988AEA61
:1009800087BD88BD089507C0EFE9FFE03197F1F713
:1009900000C0000001970097B9F7089505C025E051
:1009A0002A95F1F7000001970097C9F7089587B1DC
:1009B000886387B90895CF938091CF01882351F040
:1009C0001092CF0180917401882309F451C043989B
:1009D000109274018091D001863078F01092D0018D
:1009E000C0917601C13009F45AC080917A01882300
:1009F00009F479C0459810927A018091D101882339
:100A000051F11092D10180917601813031F18091C4
:100A10007C01823009F490C080917D01811113C066
:100A2000449A81E080937D0180917B01823008F4BB
:100A30004EC080917501843609F483C00E94BA04C7
:100A4000CF910C94C60580917C018F5F80937C01CF
:100A5000449810927D01CF91089580917901813061
:100A600009F47EC008F05FC081E0CF910C9494043B
:100A7000439A81E080937401109275010E941B07D4
:100A8000181619060CF444C080917501813609F4DA
:100A90006BC0813709F09ECF109276019BCF1092E8
:100AA0007801109277010E94E10590E0909378011F
:100AB000809377019C01245131092A30310508F4D3
:100AC00044C04E970CF45AC0C093790196CF8091E0
:100AD00075018C3609F440C008F04AC0843689F1AB
:100AE000CF910C94BA04459AC1E0C0937A01109258
:100AF0007801109277010E94E10590E090937801CF
:100B0000809377018531910544F010927B0175CF78
:100B10000E947B0680937501B9CF45970997C0F471
:100B2000C0937B016ACF823009F095CF80E00E94AC
:100B30008704CF910C94BD040E94BA0410927C01EA
:100B40006BCF81E0CF910C9487041092790155CF3F
:100B500082E080937B0151CF81E0CF910C94A1047E
:100B600080E0CF910C94940481E08093760132CFA1
:100B7000823741F0853709F0B3CF76CF82E080939A
:100B800079013BCF81E0CF910C94AD04CF93CFE1BD
:100B9000289A8BE490E00E94CE0428988BE490E0A1
:100BA0000E94CE04C150A1F7CF910895BC016350BB
:100BB000710983E89AE10E94FD0B64507109CB0131
:100BC000089548E080E090E020917A00206420932E
:100BD0007A0020917A0026FDFCCF20917800309198
:100BE0007900820F931F415079F7BC017595679585
:100BF00075956795759567956350710983E89AE1D6
:100C00000E94FD0B862F845008951F920F920FB6FD
:100C10000F9211242F938F939F93EF93FF939091B3
:100C2000C0008091C6001092D2018136D9F098712F
:100C3000E0918001EF5FEF7120917F01E217B1F049
:100C4000E0938001F0E0ED57FE4F808390937E01AA
:100C5000FF91EF919F918F912F910F900FBE0F9069
:100C60001F90189521E02093D201E1CF92E0EECFC2
:100C70001F920F920FB60F9211248F939F93EF93B1
:100C8000FF9390918201809181019817A9F0E091E2
:100C90008101EF5FEF71E0938101F0E0ED55FE4FD0
:100CA00080818093C600FF91EF919F918F910F906B
:100CB0000FBE0F901F9018958091C1008F7D80937B
:100CC000C100F1CF10928201109281011092800137
:100CD00010927F0197FF04C022E02093C0009F770D
:100CE0009093C5008093C40088E98093C10086E09A
:100CF0008093C20008959091800180917F019817A0
:100D000091F0E0917F01EF5FEF71E0937F01F0E000
:100D1000ED57FE4F808190917E01392F20E0280F02
:100D2000311DC901089520E031E0C90108952091E5
:100D300082012F5F2F71909181012917E1F3E22F3A
:100D4000F0E0ED55FE4F8083209382018091C10039
:100D500080628093C1000895FC0120812223C9F0A4
:100D6000DC011196909182019F5F9F7180918101BA
:100D70009817E1F3E92FF0E0ED55FE4F20839093B3
:100D800082018091C10080628093C1002D91211168
:100D9000E9CF08959C012F5F3F4FFC018491882388
:100DA000D1F0409182014F5F4F71909181014917BD
:100DB000E1F3A42FB0E0AD55BE4F8C934093820178
:100DC0008091C10080628093C100F9012F5F3F4F85
:100DD00084918111E6CF08958A30B9F02091820183
:100DE0002F5F2F71909181012917E1F3E22FF0E03D
:100DF000ED55FE4F8083209382018091C100806277
:100E00008093C10080E090E00895209182012F5FDF
:100E10002F71909181012917E1F3E22FF0E0ED5558
:100E2000FE4F9DE09083209382019091C1009062DB
:100E30009093C100D3CF8091800120917F0190E0F9
:100E40004F96821B91096FE170E00E94FD0B08959F
:100E500080917F0180938001089580EC97E2A9E062
:100E6000B0E0319907C00197A109B109D1F72FEF7F
:100E70003FEF3BC010928000809180008F7780937D
:100E80008000809180008F7B809380008091800023
:100E90008F7D80938000809180008F7E8093800082
:100EA00082E080938100109285001092840080EC93
:100EB00097E2A9E0B0E0319B0CC020918400309112
:100EC000850021363A4E28F40197A109B10999F716
:100ED000CECF209184003091850010928100213680
:100EE0008AEE380720F02EEF3FEFC90108953695BE
:100EF0002795C9010895CF93DF93EC013A9A429860
:100F000082E090E00E94CE04429A8AE090E00E9443
:100F1000CE04429839980E942D078F3F2FEF9207F9
:100F2000F9F08E3F2FEF9207D9F09C01AFE9B6E4BC
:100F30000E94F10B9C01329522952F7023273F7060
:100F40002327922F332739832883892F8150873C89
:100F500038F481E09A3028F080E0DF91CF91089555
:100F600082E0DF91CF9108951F93CF93DF93EC013F
:100F700016E0AE0168EC70E085E090E00E940F089A
:100F80001150B9F7DF91CF911F910895EF92FF9221
:100F90000F931F93CF93DF93181619063CF52C9AE5
:100FA0008C0197FD27C088EE93E00E94FD0B86E43C
:100FB000869F9001879F300D11240115110579F04E
:100FC0007901C0E0D0E02D9AC7010E94CE042D988F
:100FD000C7010E94CE042196C017D107A1F7DF9167
:100FE000CF911F910F91FF90EF9008952C988C0155
:100FF00097FFD9CF119501951109D5CFCF93CBE0AC
:101000001B990AC068EC70E08BEF9FEF0E94C60747
:10101000C150B1F7CF910895CF910C94C605BF92FE
:10102000CF92DF92EF92FF920F931F93CF93DF93B4
:101030006A0118161906C4F52C9A7C0197FD38C070
:1010400088EE93E00E94FD0B86E4869FE001879F77
:10105000D00D1124E114F10479F100E010E00DC08D
:101060002D9ACE010E94CE042D98CE010E94CE046E
:101070000F5F1F4F0E151F05A1F0C6010E947B07D1
:10108000B82E81E0B812ECCF21E030E0C901DF9149
:10109000CF911F910F91FF90EF90DF90CF90BF9075
:1010A00008952B2D30E0F2CF2C987C0197FFC8CF0C
:1010B000F194E194F108C4CF20E030E0E7CF8F92C3
:1010C0009F92AF92BF92CF92DF92EF92FF926B010D
:1010D0007C0149015A0120E030E0A9010E94DB01B6
:1010E00018160CF043C02C9AC701B6010E94660284
:1010F00077FD43C0882777FD8095982F0E940A02CC
:1011000024EE38E34EE850E40E9453000E94660249
:101110007B01A501940160E070E080E89FE30E94FC
:10112000380120E030E04CE852E40E9453000E9475
:1011300066021E141F048CF45B01C12CD12C2D9A65
:10114000C5010E94CE042D98C5010E94CE048FEFE8
:10115000C81AD80ACE14DF0491F7FF90EF90DF9001
:10116000CF90BF90AF909F908F9008952C98C7011B
:10117000B6010E94660277FFBDCF71956195710936
:10118000B9CF64E670E089E190E00E94C60782E38F
:1011900090E00E94C30464E670E087EE9FEF0E9437
:1011A000C60782E390E00C94C30480E480937C0043
:1011B000EAE7F0E087E0808380818068808308959B
:1011C00080E680937C00EAE7F0E085E08083808120
:1011D00080688083089590917C00907F90937C003C
:1011E00090917C00982B90937C0080917A00806491
:1011F00080937A0080917A0086FDFCCF2091780060
:1012000030917900C901089590917C00907F90936E
:101210007C0090917C00982B90937C0080917A00C8
:10122000806480937A0080917A0086FDFCCF809163
:1012300079000895EAE7F0E080818F778083089550
:10124000ECE7F0E080818064808380818F77808309
:101250000895ECE7F0E08081806C80830895FC01C4
:10126000408121E030E0062E01C0220F0A94EAF707
:101270004227408308950895CF92DF92EF92FF9224
:101280000F931F9368017901FC01411124C0408133
:1012900021E030E0062E01C0220F0A94EAF72095E3
:1012A000242320830091D5011091D6012091D701EC
:1012B0003091D8010C0D1D1D2E1D3F1D462FBC0168
:1012C00083ED91E00E94A8091F910F91FF90EF908C
:1012D000DF90CF900895408121E030E0062E01C0DC
:1012E000220F0A94EAF7422B4083DCCF4091D501CC
:1012F0005091D6016091D7017091D8012FE239E069
:1013000083ED91E00C94E709880F81508093C3012D
:1013100008958091C4019091D901811102C0923346
:1013200060F4943148F095B120E2922795B910927B
:10133000D90181508093C401089585B190E2892735
:1013400085B91092D9018091C3018093C401089599
:101350008F929F92AF92BF92CF92DF92EF92FF92C5
:101360000F931F93CF93DF931F92CDB7DEB74C013E
:101370005B016801790189E090E049830E94770C64
:10138000FC014981009701F1B182A0824283C382AE
:10139000D482E582F682D4018D919C911197908739
:1013A0008783ED93FC9320E030E0C9010F90DF913B
:1013B000CF911F910F91FF90EF90DF90CF90BF9052
:1013C000AF909F908F9008952FEF3FEFEECF4F9209
:1013D0005F926F927F92AF92BF92CF92DF92EF9225
:1013E000FF920F931F93CF93DF937C012A013B0160
:1013F0006901FC01C081D181209741F15E0107C0E4
:101400009F8188855E01C92FD82F2097F9F00B8125
:101410001C812D813E81401651066206730680F3C1
:101420006A8188819981F60109950F811885F701F4
:1014300080819181C817D907D1F0F5010783108702
:10144000CE010E94120DE801209709F780E090E09C
:10145000DF91CF911F910F91FF90EF90DF90CF9090
:10146000BF90AF907F906F905F904F9008950083F2
:101470001183E6CF2FEFFC01208308958834910576
:10148000E9F038F0833B910501F1843B910559F077
:10149000089587349105E1F784B5836C84BD85B5E3
:1014A000816085BD08958091B00083638093B00012
:1014B0008091B10081608093B100089584B5836309
:1014C00084BD85B5816085BD08958091B000836C31
:1014D0008093B0008091B10081608093B100089545
:1014E0000F931F9389019A01FC0160834091DC01F5
:1014F0005091DD016091DE017091DF01040F151F35
:10150000261F371F40E0BC018AED91E00E94A80928
:101510001F910F9108954091DC015091DD01609180
:10152000DE017091DF012AE33AE08AED91E00C944C
:10153000E70983E08093810082E390E09093890043
:101540008093880082E080936F0008951F920F922D
:101550000FB60F9211248F939F93EF93FF93E8E8B8
:10156000F0E080819181C296918380838091C50152
:101570008F5F8093C501FF91EF919F918F910F90A5
:101580000FBE0F901F901895F8948091C50190910F
:10159000C601282F291B8093C60178948091C7012A
:1015A000820F853060F58093C7018091C801820F5A
:1015B0008093C801823310F182538093C8018091D7
:1015C000D9018F5F8093D9018091D0018F5F809383
:1015D000D0018091C9018F5F8530D8F58093C90112
:1015E0008091CA018F5F8093CA018A3038F01092CF
:1015F000CA018091D1018F5F8093D10108958550F8
:101600008093C7018091D5019091D601A091D70117
:10161000B091D8010196A11DB11D8093D501909381
:10162000D601A093D701B093D8018091DC019091AD
:10163000DD01A091DE01B091DF010196A11DB11D78
:101640008093DC019093DD01A093DE01B093DF0174
:10165000ACCF1092C9018091CF018F5F8093CF01F1
:10166000BFCFCF93C82F8A3041F09091C00095FF33
:10167000FCCFC093C600CF9108958DE00E94310B3E
:10168000F4CF8091C00087FFFCCF8091C600089501
:1016900084E191E09093E7018093E60186E091E098
:1016A0009093E5018093E4011092C50087E6809352
:1016B000C400E0ECF0E080818D7F808386E0809341
:1016C000C20088E18093C1000895259A08958AB1E7
:1016D000806F8AB985B5877F85BD84B58D7F84BDD0
:1016E00084B5816084BD84B5806884BD84B58F7BFA
:1016F00084BD84B5806284BD84B58F7E84BD85B58C
:101700008B7F85BD85B58D7F85BD85B5816085BDA8
:1017100017BC18BC0895389880917C008F7780930F
:101720007C0080917C008F7B80937C0080917A008C
:10173000846080937A0080917A00826080937A003E
:1017400080917A00816080937A0080917A0080682D
:1017500080937A0080917C00877F80937C008091C9
:101760007C008B7F80937C0080917C008D7F8093B8
:101770007C0080917C008E7F80937C0080917E0035
:10178000816080937E0080917A00806480937A00EB
:1017900080917A0086FDFCCF089587E690E00E9454
:1017A000620682E291E09093E7018093E60108955A
:1017B000209A0895259A0E94990A81E00E9484093E
:1017C0000E94CD0B0E948B0B0E94670B209A0E94F7
:1017D000D70478940E94C40A0E9489090E94DB04FD
:1017E000F9CFA29FB001B39FC001A39F01D0B29FC8
:1017F000700D811D1124911D089597FB072E16F47D
:10180000009407D077FD09D00E94110C07FC05D089
:101810003EF4909581959F4F0895709561957F4F07
:101820000895AA1BBB1B51E107C0AA1FBB1FA61727
:10183000B70710F0A61BB70B881F991F5A95A9F779
:1018400080959095BC01CD0108952F923F924F92C3
:101850005F926F927F928F929F92AF92BF92CF9240
:10186000DF92EF92FF920F931F93CF93DF93CDB749
:10187000DEB7CA1BDB0B0FB6F894DEBF0FBECDBFC1
:1018800009942A88398848885F846E847D848C8492
:101890009B84AA84B984C884DF80EE80FD800C819B
:1018A0001B81AA81B981CE0FD11D0FB6F894DEBF7E
:1018B0000FBECDBFED0108950E94650C84FF089511
:1018C000CB010E94650C805F0895AA27992329F413
:1018D000A85F982B11F480E10895903118F4AD5F62
:1018E0009295A395990FE8F78A2F992708950F935A
:1018F0001F93CF93DF938230910510F482E090E044
:10190000E091E201F091E30120E030E0C0E0D0E0BE
:1019100023C04081518148175907A8F0481759073B
:1019200061F482819381209719F09B838A832EC072
:101930009093E3018093E20129C02115310529F03C
:101940004217530710F0A90102C0BE01DF01028156
:101950001381EF019A01F8013097D9F6211531056D
:1019600009F1281B390B2430310590F412968D9122
:101970009C9113976115710521F0FB01938382837C
:1019800004C09093E3018093E201FD01329644C0CC
:10199000FD01E20FF31F81939193225031092D93A2
:1019A0003C933AC02091E0013091E101232B41F4B6
:1019B00020910201309103013093E1012093E00175
:1019C00020910001309101012115310541F42DB71D
:1019D0003EB74091040150910501241B350BE09165
:1019E000E001F091E101E217F307A0F42E1B3F0B99
:1019F0002817390778F0AC014E5F5F4F2417350781
:101A000048F04E0F5F1F5093E1014093E001819336
:101A1000919302C0E0E0F0E0CF01DF91CF911F9100
:101A20000F910895EF92FF920F931F93CF93DF933F
:101A3000009709F48EC0DC01129713961C921E9237
:101A40001297E090E201F090E301E114F10489F4CF
:101A50002D913C911197280F391F8091E0019091B1
:101A6000E1018217930789F5B093E101A093E001AA
:101A700070C0E70120E030E001C0EA01CA17DB07CF
:101A800038F44A815B819E0141155105B1F722C0AE
:101A9000AC0142505109FA01D383C2830081118104
:101AA000BC01600F711F6C177D0761F4688179813B
:101AB000600F711F6E5F7F4F718360836A817B81CE
:101AC000738362832115310529F4B093E301A09358
:101AD000E2013FC0F901B383A283E9014991599121
:101AE000C40FD51FAC17BD0771F4DC019E918E9118
:101AF000840F951F02969183808312968D919C91FD
:101B0000139793838283A0E0B0E002C0D7017C01E9
:101B1000F701828193810097C9F7C701029620815E
:101B20003181820F931F2091E0013091E10128174C
:101B3000390779F4109729F41092E3011092E20129
:101B400004C013961C921E921297F092E101E0924B
:101B5000E001CDB7DEB7E6E00C944D0CA2E0B0E0BA
:101B6000E4EBFDE00C94350CFE0137966191719128
:101B7000FA83E983AF018091E6019091E7010E9429
:101B8000C50D2296E2E00C94510CACE0B0E0EBEC19
:101B9000FDE00C94250C7C016B018A01FC0117828D
:101BA0001682838181FFC7C188248394912C8C0E77
:101BB0009D1EF7019381F60193FD859193FF81911D
:101BC0006F01882309F4B3C1853239F493FD8591FF
:101BD00093FF81916F01853229F4B70190E00E9453
:101BE000B80FE7CF712C312C20E02032A8F48B32D3
:101BF00061F028F4803251F0833271F40BC08D32E1
:101C000039F0803349F4216028C02260246025C067
:101C1000286023C0206121C027FD27C0382F305302
:101C20003A3078F426FF06C0FAE07F9E300D11248A
:101C3000732E13C08AE0389E300D1124332E20629B
:101C40000CC08E3221F426FD72C1206406C08C3691
:101C500011F4206802C0883641F4F60193FD8591A5
:101C600093FF81916F018111C0CF982F95549330CC
:101C700018F09052933028F40C5F1F4FFFE3F98364
:101C80000DC0833631F0833771F0833509F05EC0C3
:101C900023C0F801808189830E5F1F4F66246394FF
:101CA000712C540115C02801F2E04F0E511CF801AF
:101CB000A080B18026FF03C0672D70E002C06FEFE7
:101CC0007FEFC5012C870E94AD0F3C0182012C855E
:101CD0006FE7262E222218C02801F2E04F0E511C79
:101CE000F801A080B18026FF03C0672D70E002C01C
:101CF0006FEF7FEFC5012C870E94A20F3C012C855E
:101D000050E8252E222A820123FC1CC006C0B70100
:101D100080E290E00E94B80F3A94832D90E068161C
:101D20007906A8F30FC0F50127FC859127FE819164
:101D30005F01B70190E00E94B80F31103A94F1E0D2
:101D40006F1A71086114710471F7EEC0843611F0D6
:101D5000893641F5F80127FF07C0608171818281D2
:101D600093810C5F1F4F08C060817181882777FDC8
:101D70008095982F0E5F1F4F4FE6642E622297FFCB
:101D800009C090958095709561957F4F8F4F9F4FBB
:101D9000F0E86F2A2AE030E0A4010E94E40FA82EA8
:101DA000A81844C0853731F43FEEB32EB2222AE0A2
:101DB00030E024C099EFB92EB2228F36B9F020F46A
:101DC000883509F0B4C00DC0803721F0883709F09C
:101DD000AEC002C020E1B22AB4FE0BC084E0B82A33
:101DE00008C024FF09C0E6E0BE2A06C028E030E0B3
:101DF00005C020E130E002C020E132E0F801B7FE8A
:101E000007C060817181828193810C5F1F4F06C082
:101E10006081718180E090E00E5F1F4FA4010E94FD
:101E2000E40FA82EA8188FE7682E6B2066FE0BC063
:101E3000362D3E7FA71450F464FE0AC062FC08C031
:101E4000362D3E7E05C0BA2C362D03C0BA2C01C0FB
:101E5000B72C34FF0DC0FE01EA0DF11D80818033E7
:101E600011F4397E09C032FF06C0B394B39404C0A4
:101E7000832F867809F0B39433FD14C030FF0FC070
:101E80007A2CB31460F4730C7B18B32C08C0B70120
:101E900080E290E03C870E94B80FB3943C85B31475
:101EA000B0F304C0B31410F43B1801C0312C34FF5C
:101EB00012C0B70180E390E03C870E94B80F3C85D8
:101EC00032FF1EC031FF03C088E590E002C088E702
:101ED00090E0B7010CC0832F867891F031FD02C0ED
:101EE00080E201C08BE237FD8DE2B70190E00E94F5
:101EF000B80F06C0B70180E390E00E94B80F7A9453
:101F0000A714C0F3AA94F401EA0DF11DB701808172
:101F100090E00E94B80FA110F5CF06C0B70180E293
:101F200090E00E94B80F3A943110F8CF42CEF701FA
:101F30002681378102C02FEF3FEFC9012C96E2E1E5
:101F40000C94410CFC010590615070400110D8F7D1
:101F5000809590958E0F9F1F0895FC0161507040F1
:101F600001900110D8F7809590958E0F9F1F0895CE
:101F70000F931F93CF93DF938C01EB018B8181FD36
:101F800003C00FEF1FEF1AC082FF0DC02E813F81EB
:101F90008C819D812817390764F4E881F9810193C8
:101FA000F983E88306C0E885F985802F0995892B98
:101FB00041F78E819F8101969F838E83C801DF91B7
:101FC000CF911F910F910895FA01AA27283051F15E
:101FD000203181F1E8946F936E7F6E5F7F4F8F4F5A
:101FE0009F4FAF4FB1E03ED0B4E03CD0670F781FB9
:101FF000891F9A1FA11D680F791F8A1F911DA11D9E
:102000006A0F711D811D911DA11D20D009F46894D6
:102010003F912AE0269F11243019305D3193DEF67E
:10202000CF010895462F4770405D4193B3E00FD034
:10203000C9F7F6CF462F4F70405D4A3318F0495D1F
:1020400031FD4052419302D0A9F7EACFB4E0A69502
:102050009795879577956795BA95C9F70097610524
:10206000710508959B01AC010A2E0694579547957A
:1020700037952795BA95C9F7620F731F841F951F6F
:08208000A01D0895F894FFCFA4
:102088000000EA012000000000010000000000003C
:10209800410B00000000000200000000310B0000AE
:1020A80000000000000200000000EC060000000034
:1020B800000000000000000057726974696E672014
:1020C800257520746F207468652050574D207069FD
:1020D8006E2E0A0009090909566F6C74616765203C
:1020E800646976696465722072656164733A202553
:0420F800750A000065
:00000001FF
